{
  "_format": "hh-sol-artifact-1",
  "contractName": "NFTStaker",
  "sourceName": "contracts/NFTStaker.sol",
  "abi": [
    {
      "inputs": [
        {
          "internalType": "contract IERC721",
          "name": "_nftCollection",
          "type": "address"
        }
      ],
      "stateMutability": "payable",
      "type": "constructor"
    },
    {
      "anonymous": false,
      "inputs": [
        {
          "indexed": true,
          "internalType": "address",
          "name": "previousOwner",
          "type": "address"
        },
        {
          "indexed": true,
          "internalType": "address",
          "name": "newOwner",
          "type": "address"
        }
      ],
      "name": "OwnershipTransferred",
      "type": "event"
    },
    {
      "inputs": [],
      "name": "claimRewards",
      "outputs": [],
      "stateMutability": "nonpayable",
      "type": "function"
    },
    {
      "inputs": [],
      "name": "clearRewards",
      "outputs": [],
      "stateMutability": "nonpayable",
      "type": "function"
    },
    {
      "inputs": [
        {
          "internalType": "address",
          "name": "_staker",
          "type": "address"
        }
      ],
      "name": "getALLTOKENS",
      "outputs": [
        {
          "components": [
            {
              "internalType": "address",
              "name": "staker",
              "type": "address"
            },
            {
              "internalType": "uint256",
              "name": "tokenId",
              "type": "uint256"
            }
          ],
          "internalType": "struct NFTStaker.StakedToken[]",
          "name": "",
          "type": "tuple[]"
        }
      ],
      "stateMutability": "view",
      "type": "function"
    },
    {
      "inputs": [],
      "name": "getAddressBalance",
      "outputs": [
        {
          "internalType": "uint256",
          "name": "",
          "type": "uint256"
        }
      ],
      "stateMutability": "view",
      "type": "function"
    },
    {
      "inputs": [],
      "name": "getContractAddress",
      "outputs": [
        {
          "internalType": "address",
          "name": "",
          "type": "address"
        }
      ],
      "stateMutability": "view",
      "type": "function"
    },
    {
      "inputs": [
        {
          "internalType": "address",
          "name": "_staker",
          "type": "address"
        }
      ],
      "name": "getStakedTokens",
      "outputs": [
        {
          "components": [
            {
              "internalType": "address",
              "name": "staker",
              "type": "address"
            },
            {
              "internalType": "uint256",
              "name": "tokenId",
              "type": "uint256"
            }
          ],
          "internalType": "struct NFTStaker.StakedToken[]",
          "name": "",
          "type": "tuple[]"
        }
      ],
      "stateMutability": "view",
      "type": "function"
    },
    {
      "inputs": [],
      "name": "lockPeriod",
      "outputs": [
        {
          "internalType": "uint256",
          "name": "",
          "type": "uint256"
        }
      ],
      "stateMutability": "view",
      "type": "function"
    },
    {
      "inputs": [],
      "name": "nftCollection",
      "outputs": [
        {
          "internalType": "contract IERC721",
          "name": "",
          "type": "address"
        }
      ],
      "stateMutability": "view",
      "type": "function"
    },
    {
      "inputs": [],
      "name": "owner",
      "outputs": [
        {
          "internalType": "address",
          "name": "",
          "type": "address"
        }
      ],
      "stateMutability": "view",
      "type": "function"
    },
    {
      "inputs": [],
      "name": "renounceOwnership",
      "outputs": [],
      "stateMutability": "nonpayable",
      "type": "function"
    },
    {
      "inputs": [],
      "name": "rewardsPerBlock",
      "outputs": [
        {
          "internalType": "uint256",
          "name": "",
          "type": "uint256"
        }
      ],
      "stateMutability": "view",
      "type": "function"
    },
    {
      "inputs": [
        {
          "internalType": "uint256",
          "name": "_lockPeriod",
          "type": "uint256"
        }
      ],
      "name": "setLockTimePeriod",
      "outputs": [],
      "stateMutability": "nonpayable",
      "type": "function"
    },
    {
      "inputs": [
        {
          "internalType": "uint256",
          "name": "_tokenId",
          "type": "uint256"
        }
      ],
      "name": "stake",
      "outputs": [],
      "stateMutability": "nonpayable",
      "type": "function"
    },
    {
      "inputs": [
        {
          "internalType": "uint256",
          "name": "",
          "type": "uint256"
        }
      ],
      "name": "stakerAddress",
      "outputs": [
        {
          "internalType": "address",
          "name": "",
          "type": "address"
        }
      ],
      "stateMutability": "view",
      "type": "function"
    },
    {
      "inputs": [
        {
          "internalType": "address",
          "name": "",
          "type": "address"
        }
      ],
      "name": "stakers",
      "outputs": [
        {
          "internalType": "uint256",
          "name": "amountStaked",
          "type": "uint256"
        },
        {
          "internalType": "uint256",
          "name": "durationOfStake",
          "type": "uint256"
        },
        {
          "internalType": "uint256",
          "name": "unclaimedRewards",
          "type": "uint256"
        },
        {
          "internalType": "uint256",
          "name": "blockNumber",
          "type": "uint256"
        }
      ],
      "stateMutability": "view",
      "type": "function"
    },
    {
      "inputs": [
        {
          "internalType": "address",
          "name": "newOwner",
          "type": "address"
        }
      ],
      "name": "transferOwnership",
      "outputs": [],
      "stateMutability": "nonpayable",
      "type": "function"
    },
    {
      "inputs": [
        {
          "internalType": "uint256",
          "name": "_tokenId",
          "type": "uint256"
        }
      ],
      "name": "unStake",
      "outputs": [],
      "stateMutability": "nonpayable",
      "type": "function"
    },
    {
      "inputs": [
        {
          "internalType": "address",
          "name": "_staker",
          "type": "address"
        }
      ],
      "name": "viewRewards",
      "outputs": [
        {
          "internalType": "uint256",
          "name": "",
          "type": "uint256"
        }
      ],
      "stateMutability": "view",
      "type": "function"
    }
  ],
  "bytecode": "0x60a060405266038d7ea4c6800060015560405161129138038061129183398101604081905261002d916100eb565b6100363361009b565b6000471161008a5760405162461bcd60e51b815260206004820152601360248201527f6e65656420746f206465706f7369742065746800000000000000000000000000604482015260640160405180910390fd5b6001600160a01b031660805261011b565b600080546001600160a01b038381166001600160a01b0319831681178455604051919092169283917f8be0079c531659141344cd1fd0a4f28419497f9722a3daafe3b4186f6b6457e09190a35050565b6000602082840312156100fd57600080fd5b81516001600160a01b038116811461011457600080fd5b9392505050565b60805161114661014b600039600081816101cf015281816106b301528181610b380152610c2a01526111466000f3fe608060405234801561001057600080fd5b50600436106101365760003560e01c806375eb2ad1116100b25780639406704511610081578063da40ef8011610066578063da40ef80146102b6578063e22223d5146102c9578063f2fde38b146102d157600080fd5b8063940670451461027a578063a694fc3a146102a357600080fd5b806375eb2ad1146101f9578063816c08ba146101ff5780638da5cb5b146102125780639168ae721461022357600080fd5b80635d3eea911161010957806363c28db1116100ee57806363c28db1146101aa5780636588103b146101ca578063715018a6146101f157600080fd5b80635d3eea911461018e5780635eeb6710146101a157600080fd5b806329def59d1461013b57806332a2c5d014610150578063372500ab1461016f5780633fd8b02f14610177575b600080fd5b61014e610149366004610f6c565b6102e4565b005b305b6040516001600160a01b0390911681526020015b60405180910390f35b61014e6102f1565b61018060025481565b604051908152602001610166565b61014e61019c366004610f6c565b610417565b61018060015481565b6101bd6101b8366004610f9a565b610713565b6040516101669190610fb7565b6101527f000000000000000000000000000000000000000000000000000000000000000081565b61014e6108ac565b47610180565b6101bd61020d366004610f9a565b6108c0565b6000546001600160a01b0316610152565b61025a610231366004610f9a565b600360208190526000918252604090912080546002820154928201546004909201549092919084565b604080519485526020850193909352918301526060820152608001610166565b610152610288366004610f6c565b6004602052600090815260409020546001600160a01b031681565b61014e6102b1366004610f6c565b610ab1565b6101806102c4366004610f9a565b610d46565b61014e610d7e565b61014e6102df366004610f9a565b610da7565b6102ec610e37565b600255565b33600081815260036020819052604082200154909161030f90610e91565b6103199190611025565b9050600081116103705760405162461bcd60e51b815260206004820152601c60248201527f596f752068617665206e6f207265776172647320746f20636c61696d0000000060448201526064015b60405180910390fd5b33600090815260036020526040902054156103cd5760405162461bcd60e51b815260206004820152601960248201527f596f75207374696c6c2068617665204e4654207374616b6564000000000000006044820152606401610367565b604051339082156108fc029083906000818181858888f193505050501580156103fa573d6000803e3d6000fd5b505033600090815260036020819052604082204260028201550155565b336000908152600360205260409020546104735760405162461bcd60e51b815260206004820152601e60248201527f20596f752068617665206e6f20746f6b656e73207374616b65642079657400006044820152606401610367565b6000818152600460205260409020546001600160a01b031633146104d95760405162461bcd60e51b815260206004820152601860248201527f20596f7520646f6e74206f776e207468697320746f6b656e00000000000000006044820152606401610367565b6000805b336000908152600360205260409020600101548110156105505733600090815260036020526040902060010180548491908390811061051e5761051e61103d565b906000526020600020906002020160010154141561053e57809150610550565b8061054881611053565b9150506104dd565b5033600081815260036020819052604090912001549061056f90610e91565b6105799190611025565b33600090815260036020819052604082209081019290925560019091018054839081106105a8576105a861103d565b6000918252602080832060029290920290910180546001600160a01b0319166001600160a01b0394909416939093179092553381526003909152604081208054916105f28361106e565b9091555050336000908152600360205260409020426002808301829055436004909301929092559054106106685760405162461bcd60e51b815260206004820152601d60248201527f5374616b65206973207374696c6c20696e206c6f636b20706572696f640000006044820152606401610367565b60008281526004602081905260409182902080546001600160a01b031916905590516323b872dd60e01b81523091810191909152336024820152604481018390526001600160a01b037f000000000000000000000000000000000000000000000000000000000000000016906323b872dd90606401600060405180830381600087803b1580156106f757600080fd5b505af115801561070b573d6000803e3d6000fd5b505050505050565b6001600160a01b0381166000908152600360205260408120546060919067ffffffffffffffff81111561074857610748611085565b60405190808252806020026020018201604052801561078d57816020015b60408051808201909152600080825260208201528152602001906001900390816107665790505b5090506000805b6001600160a01b0385166000908152600360205260409020600101548110156108a3576001600160a01b03851660009081526003602052604081206001018054839081106107e4576107e461103d565b60009182526020909120600290910201546001600160a01b031614610891576001600160a01b03851660009081526003602052604090206001018054829081106108305761083061103d565b60009182526020918290206040805180820190915260029092020180546001600160a01b03168252600101549181019190915283518490849081106108775761087761103d565b6020026020010181905250818061088d90611053565b9250505b8061089b81611053565b915050610794565b50909392505050565b6108b4610e37565b6108be6000610f1c565b565b6001600160a01b03811660009081526003602052604090205460609015610a6d576001600160a01b03821660009081526003602052604081205467ffffffffffffffff81111561091257610912611085565b60405190808252806020026020018201604052801561095757816020015b60408051808201909152600080825260208201528152602001906001900390816109305790505b5090506000805b6001600160a01b0385166000908152600360205260409020600101548110156108a3576001600160a01b03851660009081526003602052604081206001018054839081106109ae576109ae61103d565b60009182526020909120600290910201546001600160a01b031614610a5b576001600160a01b03851660009081526003602052604090206001018054829081106109fa576109fa61103d565b60009182526020918290206040805180820190915260029092020180546001600160a01b0316825260010154918101919091528351849084908110610a4157610a4161103d565b60200260200101819052508180610a5790611053565b9250505b80610a6581611053565b91505061095e565b6040805160008082526020820190925290610aaa565b6040805180820190915260008082526020820152815260200190600190039081610a835790505b5092915050565b3360009081526003602052604090205415610aff576000610ad133610e91565b33600090815260036020819052604082200180549293508392909190610af8908490611025565b9091555050505b6040517f6352211e0000000000000000000000000000000000000000000000000000000081526004810182905233906001600160a01b037f00000000000000000000000000000000000000000000000000000000000000001690636352211e9060240160206040518083038186803b158015610b7a57600080fd5b505afa158015610b8e573d6000803e3d6000fd5b505050506040513d601f19601f82011682018060405250810190610bb2919061109b565b6001600160a01b031614610c085760405162461bcd60e51b815260206004820152601860248201527f596f7520646f6e2774206f776e207468697320746f6b656e00000000000000006044820152606401610367565b6040516323b872dd60e01b8152336004820152306024820152604481018290527f00000000000000000000000000000000000000000000000000000000000000006001600160a01b0316906323b872dd90606401600060405180830381600087803b158015610c7657600080fd5b505af1158015610c8a573d6000803e3d6000fd5b5050604080518082018252338082526020808301878152600083815260038352948520600180820180548083018255908852938720865160029095020180546001600160a01b0319166001600160a01b0390951694909417845591519290910191909155908352805491945090925090610d0383611053565b9091555050336000818152600360209081526040808320426002820155436004918201559583529490529290922080546001600160a01b03191690921790915550565b6001600160a01b0381166000908152600360208190526040822001548190610d6d84610e91565b610d779190611025565b9392505050565b610d86610e37565b33600090815260036020819052604082204260028201554360048201550155565b610daf610e37565b6001600160a01b038116610e2b5760405162461bcd60e51b815260206004820152602660248201527f4f776e61626c653a206e6577206f776e657220697320746865207a65726f206160448201527f64647265737300000000000000000000000000000000000000000000000000006064820152608401610367565b610e3481610f1c565b50565b6000546001600160a01b031633146108be5760405162461bcd60e51b815260206004820181905260248201527f4f776e61626c653a2063616c6c6572206973206e6f7420746865206f776e65726044820152606401610367565b6001600160a01b038116600090815260036020526040812054819015610f16576064600154610ec091906110b8565b6001600160a01b038416600090815260036020526040902060040154610ee690436110da565b610ef091906110f1565b6001600160a01b038416600090815260036020526040902060020154610d6d90426110da565b92915050565b600080546001600160a01b038381166001600160a01b0319831681178455604051919092169283917f8be0079c531659141344cd1fd0a4f28419497f9722a3daafe3b4186f6b6457e09190a35050565b600060208284031215610f7e57600080fd5b5035919050565b6001600160a01b0381168114610e3457600080fd5b600060208284031215610fac57600080fd5b8135610d7781610f85565b602080825282518282018190526000919060409081850190868401855b8281101561100257815180516001600160a01b03168552860151868501529284019290850190600101610fd4565b5091979650505050505050565b634e487b7160e01b600052601160045260246000fd5b600082198211156110385761103861100f565b500190565b634e487b7160e01b600052603260045260246000fd5b60006000198214156110675761106761100f565b5060010190565b60008161107d5761107d61100f565b506000190190565b634e487b7160e01b600052604160045260246000fd5b6000602082840312156110ad57600080fd5b8151610d7781610f85565b6000826110d557634e487b7160e01b600052601260045260246000fd5b500490565b6000828210156110ec576110ec61100f565b500390565b600081600019048311821515161561110b5761110b61100f565b50029056fea2646970667358221220285ca2eed43c4b545fa4a76c752e326562021ebde2aaacc29ce08ddba3ade1d764736f6c63430008090033",
  "linkReferences": {},
  "deployedLinkReferences": {}
}