{
  "_format": "hh-sol-artifact-1",
  "contractName": "Pokemon",
  "sourceName": "contracts/NFTStaker.sol",
  "abi": [
    {
      "inputs": [],
      "stateMutability": "nonpayable",
      "type": "constructor"
    },
    {
      "anonymous": false,
      "inputs": [
        {
          "indexed": true,
          "internalType": "address",
          "name": "owner",
          "type": "address"
        },
        {
          "indexed": true,
          "internalType": "address",
          "name": "approved",
          "type": "address"
        },
        {
          "indexed": true,
          "internalType": "uint256",
          "name": "tokenId",
          "type": "uint256"
        }
      ],
      "name": "Approval",
      "type": "event"
    },
    {
      "anonymous": false,
      "inputs": [
        {
          "indexed": true,
          "internalType": "address",
          "name": "owner",
          "type": "address"
        },
        {
          "indexed": true,
          "internalType": "address",
          "name": "operator",
          "type": "address"
        },
        {
          "indexed": false,
          "internalType": "bool",
          "name": "approved",
          "type": "bool"
        }
      ],
      "name": "ApprovalForAll",
      "type": "event"
    },
    {
      "anonymous": false,
      "inputs": [
        {
          "indexed": true,
          "internalType": "address",
          "name": "previousOwner",
          "type": "address"
        },
        {
          "indexed": true,
          "internalType": "address",
          "name": "newOwner",
          "type": "address"
        }
      ],
      "name": "OwnershipTransferred",
      "type": "event"
    },
    {
      "anonymous": false,
      "inputs": [
        {
          "indexed": true,
          "internalType": "address",
          "name": "from",
          "type": "address"
        },
        {
          "indexed": true,
          "internalType": "address",
          "name": "to",
          "type": "address"
        },
        {
          "indexed": true,
          "internalType": "uint256",
          "name": "tokenId",
          "type": "uint256"
        }
      ],
      "name": "Transfer",
      "type": "event"
    },
    {
      "inputs": [
        {
          "internalType": "address",
          "name": "to",
          "type": "address"
        },
        {
          "internalType": "uint256",
          "name": "tokenId",
          "type": "uint256"
        }
      ],
      "name": "approve",
      "outputs": [],
      "stateMutability": "nonpayable",
      "type": "function"
    },
    {
      "inputs": [
        {
          "internalType": "address",
          "name": "owner",
          "type": "address"
        }
      ],
      "name": "balanceOf",
      "outputs": [
        {
          "internalType": "uint256",
          "name": "",
          "type": "uint256"
        }
      ],
      "stateMutability": "view",
      "type": "function"
    },
    {
      "inputs": [],
      "name": "currentSupply",
      "outputs": [
        {
          "internalType": "uint256",
          "name": "",
          "type": "uint256"
        }
      ],
      "stateMutability": "view",
      "type": "function"
    },
    {
      "inputs": [
        {
          "internalType": "uint256",
          "name": "tokenId",
          "type": "uint256"
        }
      ],
      "name": "getApproved",
      "outputs": [
        {
          "internalType": "address",
          "name": "",
          "type": "address"
        }
      ],
      "stateMutability": "view",
      "type": "function"
    },
    {
      "inputs": [],
      "name": "getTokens",
      "outputs": [
        {
          "internalType": "uint256[]",
          "name": "",
          "type": "uint256[]"
        }
      ],
      "stateMutability": "view",
      "type": "function"
    },
    {
      "inputs": [
        {
          "internalType": "address",
          "name": "owner",
          "type": "address"
        },
        {
          "internalType": "address",
          "name": "operator",
          "type": "address"
        }
      ],
      "name": "isApprovedForAll",
      "outputs": [
        {
          "internalType": "bool",
          "name": "",
          "type": "bool"
        }
      ],
      "stateMutability": "view",
      "type": "function"
    },
    {
      "inputs": [],
      "name": "maxSupply",
      "outputs": [
        {
          "internalType": "uint256",
          "name": "",
          "type": "uint256"
        }
      ],
      "stateMutability": "view",
      "type": "function"
    },
    {
      "inputs": [],
      "name": "name",
      "outputs": [
        {
          "internalType": "string",
          "name": "",
          "type": "string"
        }
      ],
      "stateMutability": "view",
      "type": "function"
    },
    {
      "inputs": [],
      "name": "owner",
      "outputs": [
        {
          "internalType": "address",
          "name": "",
          "type": "address"
        }
      ],
      "stateMutability": "view",
      "type": "function"
    },
    {
      "inputs": [
        {
          "internalType": "uint256",
          "name": "tokenId",
          "type": "uint256"
        }
      ],
      "name": "ownerOf",
      "outputs": [
        {
          "internalType": "address",
          "name": "",
          "type": "address"
        }
      ],
      "stateMutability": "view",
      "type": "function"
    },
    {
      "inputs": [],
      "name": "renounceOwnership",
      "outputs": [],
      "stateMutability": "nonpayable",
      "type": "function"
    },
    {
      "inputs": [],
      "name": "safeMint",
      "outputs": [],
      "stateMutability": "nonpayable",
      "type": "function"
    },
    {
      "inputs": [
        {
          "internalType": "address",
          "name": "from",
          "type": "address"
        },
        {
          "internalType": "address",
          "name": "to",
          "type": "address"
        },
        {
          "internalType": "uint256",
          "name": "tokenId",
          "type": "uint256"
        }
      ],
      "name": "safeTransferFrom",
      "outputs": [],
      "stateMutability": "nonpayable",
      "type": "function"
    },
    {
      "inputs": [
        {
          "internalType": "address",
          "name": "from",
          "type": "address"
        },
        {
          "internalType": "address",
          "name": "to",
          "type": "address"
        },
        {
          "internalType": "uint256",
          "name": "tokenId",
          "type": "uint256"
        },
        {
          "internalType": "bytes",
          "name": "data",
          "type": "bytes"
        }
      ],
      "name": "safeTransferFrom",
      "outputs": [],
      "stateMutability": "nonpayable",
      "type": "function"
    },
    {
      "inputs": [
        {
          "internalType": "address",
          "name": "operator",
          "type": "address"
        },
        {
          "internalType": "bool",
          "name": "approved",
          "type": "bool"
        }
      ],
      "name": "setApprovalForAll",
      "outputs": [],
      "stateMutability": "nonpayable",
      "type": "function"
    },
    {
      "inputs": [
        {
          "internalType": "bytes4",
          "name": "interfaceId",
          "type": "bytes4"
        }
      ],
      "name": "supportsInterface",
      "outputs": [
        {
          "internalType": "bool",
          "name": "",
          "type": "bool"
        }
      ],
      "stateMutability": "view",
      "type": "function"
    },
    {
      "inputs": [],
      "name": "symbol",
      "outputs": [
        {
          "internalType": "string",
          "name": "",
          "type": "string"
        }
      ],
      "stateMutability": "view",
      "type": "function"
    },
    {
      "inputs": [
        {
          "internalType": "uint256",
          "name": "index",
          "type": "uint256"
        }
      ],
      "name": "tokenByIndex",
      "outputs": [
        {
          "internalType": "uint256",
          "name": "",
          "type": "uint256"
        }
      ],
      "stateMutability": "view",
      "type": "function"
    },
    {
      "inputs": [],
      "name": "tokenId",
      "outputs": [
        {
          "internalType": "uint256",
          "name": "",
          "type": "uint256"
        }
      ],
      "stateMutability": "view",
      "type": "function"
    },
    {
      "inputs": [
        {
          "internalType": "address",
          "name": "owner",
          "type": "address"
        },
        {
          "internalType": "uint256",
          "name": "index",
          "type": "uint256"
        }
      ],
      "name": "tokenOfOwnerByIndex",
      "outputs": [
        {
          "internalType": "uint256",
          "name": "",
          "type": "uint256"
        }
      ],
      "stateMutability": "view",
      "type": "function"
    },
    {
      "inputs": [
        {
          "internalType": "uint256",
          "name": "tokenId",
          "type": "uint256"
        }
      ],
      "name": "tokenURI",
      "outputs": [
        {
          "internalType": "string",
          "name": "",
          "type": "string"
        }
      ],
      "stateMutability": "view",
      "type": "function"
    },
    {
      "inputs": [],
      "name": "totalSupply",
      "outputs": [
        {
          "internalType": "uint256",
          "name": "",
          "type": "uint256"
        }
      ],
      "stateMutability": "view",
      "type": "function"
    },
    {
      "inputs": [
        {
          "internalType": "address",
          "name": "from",
          "type": "address"
        },
        {
          "internalType": "address",
          "name": "to",
          "type": "address"
        },
        {
          "internalType": "uint256",
          "name": "tokenId",
          "type": "uint256"
        }
      ],
      "name": "transferFrom",
      "outputs": [],
      "stateMutability": "nonpayable",
      "type": "function"
    },
    {
      "inputs": [
        {
          "internalType": "address",
          "name": "newOwner",
          "type": "address"
        }
      ],
      "name": "transferOwnership",
      "outputs": [],
      "stateMutability": "nonpayable",
      "type": "function"
    }
  ],
  "bytecode": "0x60806040526001600b556000600c556064600d553480156200002057600080fd5b5060408051808201825260078152662837b5b2b6b7b760c91b602080830191825283518085019094526003845262504b4d60e81b9084015281519192916200006b91600091620000fa565b50805162000081906001906020840190620000fa565b5050506200009e62000098620000a460201b60201c565b620000a8565b620001dd565b3390565b600a80546001600160a01b038381166001600160a01b0319831681179093556040519116919082907f8be0079c531659141344cd1fd0a4f28419497f9722a3daafe3b4186f6b6457e090600090a35050565b8280546200010890620001a0565b90600052602060002090601f0160209004810192826200012c576000855562000177565b82601f106200014757805160ff191683800117855562000177565b8280016001018555821562000177579182015b82811115620001775782518255916020019190600101906200015a565b506200018592915062000189565b5090565b5b808211156200018557600081556001016200018a565b600181811c90821680620001b557607f821691505b60208210811415620001d757634e487b7160e01b600052602260045260246000fd5b50919050565b611d6780620001ed6000396000f3fe608060405234801561001057600080fd5b50600436106101985760003560e01c806370a08231116100e3578063aa6ca8081161008c578063d5abeb0111610066578063d5abeb011461032b578063e985e9c514610334578063f2fde38b1461037057600080fd5b8063aa6ca808146102f0578063b88d4fde14610305578063c87b56dd1461031857600080fd5b80638da5cb5b116100bd5780638da5cb5b146102c457806395d89b41146102d5578063a22cb465146102dd57600080fd5b806370a08231146102a0578063715018a6146102b3578063771282f6146102bb57600080fd5b806323b872dd116101455780634f6ccce71161011f5780634f6ccce7146102725780636352211e146102855780636871ee401461029857600080fd5b806323b872dd146102395780632f745c591461024c57806342842e0e1461025f57600080fd5b8063095ea7b311610176578063095ea7b31461020557806317d70f7c1461021a57806318160ddd1461023157600080fd5b806301ffc9a71461019d57806306fdde03146101c5578063081812fc146101da575b600080fd5b6101b06101ab36600461189f565b610383565b60405190151581526020015b60405180910390f35b6101cd6103c7565b6040516101bc9190611914565b6101ed6101e8366004611927565b610459565b6040516001600160a01b0390911681526020016101bc565b61021861021336600461195c565b610480565b005b610223600b5481565b6040519081526020016101bc565b600854610223565b610218610247366004611986565b6105b7565b61022361025a36600461195c565b61063e565b61021861026d366004611986565b6106e6565b610223610280366004611927565b610701565b6101ed610293366004611927565b6107a5565b61021861080a565b6102236102ae3660046119c2565b61089e565b610218610938565b610223600c5481565b600a546001600160a01b03166101ed565b6101cd61094c565b6102186102eb3660046119dd565b61095b565b6102f861096a565b6040516101bc9190611a19565b610218610313366004611a73565b610a3b565b6101cd610326366004611927565b610ac9565b610223600d5481565b6101b0610342366004611b4f565b6001600160a01b03918216600090815260056020908152604080832093909416825291909152205460ff1690565b61021861037e3660046119c2565b610b30565b60006001600160e01b031982167f780e9d630000000000000000000000000000000000000000000000000000000014806103c157506103c182610bc0565b92915050565b6060600080546103d690611b82565b80601f016020809104026020016040519081016040528092919081815260200182805461040290611b82565b801561044f5780601f106104245761010080835404028352916020019161044f565b820191906000526020600020905b81548152906001019060200180831161043257829003601f168201915b5050505050905090565b600061046482610c5b565b506000908152600460205260409020546001600160a01b031690565b600061048b826107a5565b9050806001600160a01b0316836001600160a01b0316141561051a5760405162461bcd60e51b815260206004820152602160248201527f4552433732313a20617070726f76616c20746f2063757272656e74206f776e6560448201527f720000000000000000000000000000000000000000000000000000000000000060648201526084015b60405180910390fd5b336001600160a01b038216148061053657506105368133610342565b6105a85760405162461bcd60e51b815260206004820152603e60248201527f4552433732313a20617070726f76652063616c6c6572206973206e6f7420746f60448201527f6b656e206f776e6572206e6f7220617070726f76656420666f7220616c6c00006064820152608401610511565b6105b28383610cbf565b505050565b6105c13382610d3a565b6106335760405162461bcd60e51b815260206004820152602e60248201527f4552433732313a2063616c6c6572206973206e6f7420746f6b656e206f776e6560448201527f72206e6f7220617070726f7665640000000000000000000000000000000000006064820152608401610511565b6105b2838383610db9565b60006106498361089e565b82106106bd5760405162461bcd60e51b815260206004820152602b60248201527f455243373231456e756d657261626c653a206f776e657220696e646578206f7560448201527f74206f6620626f756e64730000000000000000000000000000000000000000006064820152608401610511565b506001600160a01b03919091166000908152600660209081526040808320938352929052205490565b6105b283838360405180602001604052806000815250610a3b565b600061070c60085490565b82106107805760405162461bcd60e51b815260206004820152602c60248201527f455243373231456e756d657261626c653a20676c6f62616c20696e646578206f60448201527f7574206f6620626f756e647300000000000000000000000000000000000000006064820152608401610511565b6008828154811061079357610793611bbd565b90600052602060002001549050919050565b6000818152600260205260408120546001600160a01b0316806103c15760405162461bcd60e51b815260206004820152601860248201527f4552433732313a20696e76616c696420746f6b656e20494400000000000000006044820152606401610511565b600c54600e819055600d5410156108635760405162461bcd60e51b815260206004820152601d60248201527f4552433732313a206d696e74696e67206c696d697420726561636865640000006044820152606401610511565b61086f33600b54610f9e565b6001600c60008282546108829190611be9565b9091555050600b805490600061089783611c01565b9190505550565b60006001600160a01b03821661091c5760405162461bcd60e51b815260206004820152602960248201527f4552433732313a2061646472657373207a65726f206973206e6f74206120766160448201527f6c6964206f776e657200000000000000000000000000000000000000000000006064820152608401610511565b506001600160a01b031660009081526003602052604090205490565b610940610fb8565b61094a6000611012565b565b6060600180546103d690611b82565b610966338383611071565b5050565b60606000805b6109793361089e565b8110156109a0578161098a81611c01565b925050808061099890611c01565b915050610970565b5060008167ffffffffffffffff8111156109bc576109bc611a5d565b6040519080825280602002602001820160405280156109e5578160200160208202803683370190505b50905060005b6109f43361089e565b811015610a3457610a05338261063e565b828281518110610a1757610a17611bbd565b602090810291909101015280610a2c81611c01565b9150506109eb565b5092915050565b610a453383610d3a565b610ab75760405162461bcd60e51b815260206004820152602e60248201527f4552433732313a2063616c6c6572206973206e6f7420746f6b656e206f776e6560448201527f72206e6f7220617070726f7665640000000000000000000000000000000000006064820152608401610511565b610ac384848484611140565b50505050565b6060610ad482610c5b565b6000610ade6111be565b90506000815111610afe5760405180602001604052806000815250610b29565b80610b08846111de565b604051602001610b19929190611c1c565b6040516020818303038152906040525b9392505050565b610b38610fb8565b6001600160a01b038116610bb45760405162461bcd60e51b815260206004820152602660248201527f4f776e61626c653a206e6577206f776e657220697320746865207a65726f206160448201527f64647265737300000000000000000000000000000000000000000000000000006064820152608401610511565b610bbd81611012565b50565b60006001600160e01b031982167f80ac58cd000000000000000000000000000000000000000000000000000000001480610c2357506001600160e01b031982167f5b5e139f00000000000000000000000000000000000000000000000000000000145b806103c157507f01ffc9a7000000000000000000000000000000000000000000000000000000006001600160e01b03198316146103c1565b6000818152600260205260409020546001600160a01b0316610bbd5760405162461bcd60e51b815260206004820152601860248201527f4552433732313a20696e76616c696420746f6b656e20494400000000000000006044820152606401610511565b6000818152600460205260409020805473ffffffffffffffffffffffffffffffffffffffff19166001600160a01b0384169081179091558190610d01826107a5565b6001600160a01b03167f8c5be1e5ebec7d5bd14f71427d1e84f3dd0314c0f7b2291e5b200ac8c7c3b92560405160405180910390a45050565b600080610d46836107a5565b9050806001600160a01b0316846001600160a01b03161480610d8d57506001600160a01b0380821660009081526005602090815260408083209388168352929052205460ff165b80610db15750836001600160a01b0316610da684610459565b6001600160a01b0316145b949350505050565b826001600160a01b0316610dcc826107a5565b6001600160a01b031614610e485760405162461bcd60e51b815260206004820152602560248201527f4552433732313a207472616e736665722066726f6d20696e636f72726563742060448201527f6f776e65720000000000000000000000000000000000000000000000000000006064820152608401610511565b6001600160a01b038216610ec35760405162461bcd60e51b8152602060048201526024808201527f4552433732313a207472616e7366657220746f20746865207a65726f2061646460448201527f72657373000000000000000000000000000000000000000000000000000000006064820152608401610511565b610ece838383611310565b610ed9600082610cbf565b6001600160a01b0383166000908152600360205260408120805460019290610f02908490611c4b565b90915550506001600160a01b0382166000908152600360205260408120805460019290610f30908490611be9565b9091555050600081815260026020526040808220805473ffffffffffffffffffffffffffffffffffffffff19166001600160a01b0386811691821790925591518493918716917fddf252ad1be2c89b69c2b068fc378daa952ba7f163c4a11628f55a4df523b3ef91a4505050565b6109668282604051806020016040528060008152506113c8565b600a546001600160a01b0316331461094a5760405162461bcd60e51b815260206004820181905260248201527f4f776e61626c653a2063616c6c6572206973206e6f7420746865206f776e65726044820152606401610511565b600a80546001600160a01b0383811673ffffffffffffffffffffffffffffffffffffffff19831681179093556040519116919082907f8be0079c531659141344cd1fd0a4f28419497f9722a3daafe3b4186f6b6457e090600090a35050565b816001600160a01b0316836001600160a01b031614156110d35760405162461bcd60e51b815260206004820152601960248201527f4552433732313a20617070726f766520746f2063616c6c6572000000000000006044820152606401610511565b6001600160a01b03838116600081815260056020908152604080832094871680845294825291829020805460ff191686151590811790915591519182527f17307eab39ab6107e8899845ad3d59bd9653f200f220920489ca2b5937696c31910160405180910390a3505050565b61114b848484610db9565b61115784848484611446565b610ac35760405162461bcd60e51b815260206004820152603260248201527f4552433732313a207472616e7366657220746f206e6f6e20455243373231526560448201527131b2b4bb32b91034b6b83632b6b2b73a32b960711b6064820152608401610511565b6060604051806060016040528060228152602001611d1060229139905090565b60608161121e57505060408051808201909152600181527f3000000000000000000000000000000000000000000000000000000000000000602082015290565b8160005b8115611248578061123281611c01565b91506112419050600a83611c78565b9150611222565b60008167ffffffffffffffff81111561126357611263611a5d565b6040519080825280601f01601f19166020018201604052801561128d576020820181803683370190505b5090505b8415610db1576112a2600183611c4b565b91506112af600a86611c8c565b6112ba906030611be9565b60f81b8183815181106112cf576112cf611bbd565b60200101907effffffffffffffffffffffffffffffffffffffffffffffffffffffffffffff1916908160001a905350611309600a86611c78565b9450611291565b6001600160a01b03831661136b5761136681600880546000838152600960205260408120829055600182018355919091527ff3f7a9fe364faab93b216da50a3214154f22a0a2b415b23a84c8169e8b636ee30155565b61138e565b816001600160a01b0316836001600160a01b03161461138e5761138e838261159e565b6001600160a01b0382166113a5576105b28161163b565b826001600160a01b0316826001600160a01b0316146105b2576105b282826116ea565b6113d2838361172e565b6113df6000848484611446565b6105b25760405162461bcd60e51b815260206004820152603260248201527f4552433732313a207472616e7366657220746f206e6f6e20455243373231526560448201527131b2b4bb32b91034b6b83632b6b2b73a32b960711b6064820152608401610511565b60006001600160a01b0384163b1561159357604051630a85bd0160e11b81526001600160a01b0385169063150b7a029061148a903390899088908890600401611ca0565b602060405180830381600087803b1580156114a457600080fd5b505af19250505080156114d4575060408051601f3d908101601f191682019092526114d191810190611cdc565b60015b611579573d808015611502576040519150601f19603f3d011682016040523d82523d6000602084013e611507565b606091505b5080516115715760405162461bcd60e51b815260206004820152603260248201527f4552433732313a207472616e7366657220746f206e6f6e20455243373231526560448201527131b2b4bb32b91034b6b83632b6b2b73a32b960711b6064820152608401610511565b805181602001fd5b6001600160e01b031916630a85bd0160e11b149050610db1565b506001949350505050565b600060016115ab8461089e565b6115b59190611c4b565b600083815260076020526040902054909150808214611608576001600160a01b03841660009081526006602090815260408083208584528252808320548484528184208190558352600790915290208190555b5060009182526007602090815260408084208490556001600160a01b039094168352600681528383209183525290812055565b60085460009061164d90600190611c4b565b6000838152600960205260408120546008805493945090928490811061167557611675611bbd565b90600052602060002001549050806008838154811061169657611696611bbd565b60009182526020808320909101929092558281526009909152604080822084905585825281205560088054806116ce576116ce611cf9565b6001900381819060005260206000200160009055905550505050565b60006116f58361089e565b6001600160a01b039093166000908152600660209081526040808320868452825280832085905593825260079052919091209190915550565b6001600160a01b0382166117845760405162461bcd60e51b815260206004820181905260248201527f4552433732313a206d696e7420746f20746865207a65726f20616464726573736044820152606401610511565b6000818152600260205260409020546001600160a01b0316156117e95760405162461bcd60e51b815260206004820152601c60248201527f4552433732313a20746f6b656e20616c7265616479206d696e746564000000006044820152606401610511565b6117f560008383611310565b6001600160a01b038216600090815260036020526040812080546001929061181e908490611be9565b9091555050600081815260026020526040808220805473ffffffffffffffffffffffffffffffffffffffff19166001600160a01b03861690811790915590518392907fddf252ad1be2c89b69c2b068fc378daa952ba7f163c4a11628f55a4df523b3ef908290a45050565b6001600160e01b031981168114610bbd57600080fd5b6000602082840312156118b157600080fd5b8135610b2981611889565b60005b838110156118d75781810151838201526020016118bf565b83811115610ac35750506000910152565b600081518084526119008160208601602086016118bc565b601f01601f19169290920160200192915050565b602081526000610b2960208301846118e8565b60006020828403121561193957600080fd5b5035919050565b80356001600160a01b038116811461195757600080fd5b919050565b6000806040838503121561196f57600080fd5b61197883611940565b946020939093013593505050565b60008060006060848603121561199b57600080fd5b6119a484611940565b92506119b260208501611940565b9150604084013590509250925092565b6000602082840312156119d457600080fd5b610b2982611940565b600080604083850312156119f057600080fd5b6119f983611940565b915060208301358015158114611a0e57600080fd5b809150509250929050565b6020808252825182820181905260009190848201906040850190845b81811015611a5157835183529284019291840191600101611a35565b50909695505050505050565b634e487b7160e01b600052604160045260246000fd5b60008060008060808587031215611a8957600080fd5b611a9285611940565b9350611aa060208601611940565b925060408501359150606085013567ffffffffffffffff80821115611ac457600080fd5b818701915087601f830112611ad857600080fd5b813581811115611aea57611aea611a5d565b604051601f8201601f19908116603f01168101908382118183101715611b1257611b12611a5d565b816040528281528a6020848701011115611b2b57600080fd5b82602086016020830137600060208483010152809550505050505092959194509250565b60008060408385031215611b6257600080fd5b611b6b83611940565b9150611b7960208401611940565b90509250929050565b600181811c90821680611b9657607f821691505b60208210811415611bb757634e487b7160e01b600052602260045260246000fd5b50919050565b634e487b7160e01b600052603260045260246000fd5b634e487b7160e01b600052601160045260246000fd5b60008219821115611bfc57611bfc611bd3565b500190565b6000600019821415611c1557611c15611bd3565b5060010190565b60008351611c2e8184602088016118bc565b835190830190611c428183602088016118bc565b01949350505050565b600082821015611c5d57611c5d611bd3565b500390565b634e487b7160e01b600052601260045260246000fd5b600082611c8757611c87611c62565b500490565b600082611c9b57611c9b611c62565b500690565b60006001600160a01b03808716835280861660208401525083604083015260806060830152611cd260808301846118e8565b9695505050505050565b600060208284031215611cee57600080fd5b8151610b2981611889565b634e487b7160e01b600052603160045260246000fdfe68747470733a2f2f706f6b656170692e636f2f6170692f76322f706f6b656d6f6e2fa264697066735822122003269020cd29209735727e66d854ef3d22e4e21b15f7732eab397dd86395dc3264736f6c63430008090033",
  "linkReferences": {},
  "deployedLinkReferences": {}
}